{
  "contractName": "Mycontract",
  "abi": [
    {
      "inputs": [],
      "payable": false,
      "stateMutability": "nonpayable",
      "type": "constructor"
    },
    {
      "anonymous": false,
      "inputs": [
        {
          "indexed": false,
          "internalType": "uint256",
          "name": "id",
          "type": "uint256"
        },
        {
          "indexed": false,
          "internalType": "string",
          "name": "name",
          "type": "string"
        },
        {
          "indexed": false,
          "internalType": "uint256",
          "name": "price",
          "type": "uint256"
        },
        {
          "indexed": false,
          "internalType": "address payable",
          "name": "owner",
          "type": "address"
        },
        {
          "indexed": false,
          "internalType": "bool",
          "name": "purchased",
          "type": "bool"
        }
      ],
      "name": "ServiceCreate",
      "type": "event"
    },
    {
      "anonymous": false,
      "inputs": [
        {
          "indexed": false,
          "internalType": "uint256",
          "name": "id",
          "type": "uint256"
        },
        {
          "indexed": false,
          "internalType": "string",
          "name": "name",
          "type": "string"
        },
        {
          "indexed": false,
          "internalType": "uint256",
          "name": "price",
          "type": "uint256"
        },
        {
          "indexed": false,
          "internalType": "address payable",
          "name": "owner",
          "type": "address"
        },
        {
          "indexed": false,
          "internalType": "bool",
          "name": "purchased",
          "type": "bool"
        }
      ],
      "name": "ServicePurchased",
      "type": "event"
    },
    {
      "constant": true,
      "inputs": [],
      "name": "name",
      "outputs": [
        {
          "internalType": "string",
          "name": "",
          "type": "string"
        }
      ],
      "payable": false,
      "stateMutability": "view",
      "type": "function"
    },
    {
      "constant": true,
      "inputs": [],
      "name": "serviceCount",
      "outputs": [
        {
          "internalType": "uint256",
          "name": "",
          "type": "uint256"
        }
      ],
      "payable": false,
      "stateMutability": "view",
      "type": "function"
    },
    {
      "constant": true,
      "inputs": [
        {
          "internalType": "uint256",
          "name": "",
          "type": "uint256"
        }
      ],
      "name": "services",
      "outputs": [
        {
          "internalType": "uint256",
          "name": "id",
          "type": "uint256"
        },
        {
          "internalType": "string",
          "name": "name",
          "type": "string"
        },
        {
          "internalType": "uint256",
          "name": "price",
          "type": "uint256"
        },
        {
          "internalType": "address payable",
          "name": "owner",
          "type": "address"
        },
        {
          "internalType": "bool",
          "name": "purchased",
          "type": "bool"
        }
      ],
      "payable": false,
      "stateMutability": "view",
      "type": "function"
    },
    {
      "constant": false,
      "inputs": [
        {
          "internalType": "string",
          "name": "_name",
          "type": "string"
        },
        {
          "internalType": "uint256",
          "name": "_price",
          "type": "uint256"
        }
      ],
      "name": "createService",
      "outputs": [],
      "payable": false,
      "stateMutability": "nonpayable",
      "type": "function"
    },
    {
      "constant": false,
      "inputs": [
        {
          "internalType": "uint256",
          "name": "_id",
          "type": "uint256"
        }
      ],
      "name": "purchaseService",
      "outputs": [],
      "payable": true,
      "stateMutability": "payable",
      "type": "function"
    },
    {
      "constant": false,
      "inputs": [
        {
          "internalType": "string",
          "name": "_clientHash",
          "type": "string"
        }
      ],
      "name": "addClient",
      "outputs": [
        {
          "internalType": "bool",
          "name": "",
          "type": "bool"
        }
      ],
      "payable": false,
      "stateMutability": "nonpayable",
      "type": "function"
    },
    {
      "constant": false,
      "inputs": [
        {
          "internalType": "string",
          "name": "_servicePHash",
          "type": "string"
        }
      ],
      "name": "addServiceP",
      "outputs": [
        {
          "internalType": "bool",
          "name": "",
          "type": "bool"
        }
      ],
      "payable": false,
      "stateMutability": "nonpayable",
      "type": "function"
    },
    {
      "constant": true,
      "inputs": [
        {
          "internalType": "address",
          "name": "_Uaddress",
          "type": "address"
        }
      ],
      "name": "getUser",
      "outputs": [
        {
          "internalType": "string",
          "name": "",
          "type": "string"
        }
      ],
      "payable": false,
      "stateMutability": "view",
      "type": "function"
    }
  ],
  "bytecode": "0x608060405260006001553480156200001657600080fd5b506040518060400160405280600e81526020017f4b414a414c20415741434849544500000000000000000000000000000000000081525060009080519060200190620000649291906200006b565b506200011a565b828054600181600116156101000203166002900490600052602060002090601f016020900481019282601f10620000ae57805160ff1916838001178555620000df565b82800160010185558215620000df579182015b82811115620000de578251825591602001919060010190620000c1565b5b509050620000ee9190620000f2565b5090565b6200011791905b8082111562000113576000816000905550600101620000f9565b5090565b90565b611401806200012a6000396000f3fe60806040526004361061007b5760003560e01c80636f77926b1161004e5780636f77926b1461023b57806379b7f30314610305578063c22c4f43146103e5578063d5550983146104e55761007b565b8063062375261461008057806306fdde03146100ab5780631cf82bd21461013b57806360c34ae61461020d575b600080fd5b34801561008c57600080fd5b506100956105c5565b6040518082815260200191505060405180910390f35b3480156100b757600080fd5b506100c06105cb565b6040518080602001828103825283818151815260200191508051906020019080838360005b838110156101005780820151818401526020810190506100e5565b50505050905090810190601f16801561012d5780820380516001836020036101000a031916815260200191505b509250505060405180910390f35b34801561014757600080fd5b5061020b6004803603604081101561015e57600080fd5b810190808035906020019064010000000081111561017b57600080fd5b82018360208201111561018d57600080fd5b803590602001918460018302840111640100000000831117156101af57600080fd5b91908080601f016020809104026020016040519081016040528093929190818152602001838380828437600081840152601f19601f82011690508083019250505050505050919291929080359060200190929190505050610669565b005b6102396004803603602081101561022357600080fd5b810190808035906020019092919050505061087b565b005b34801561024757600080fd5b5061028a6004803603602081101561025e57600080fd5b81019080803573ffffffffffffffffffffffffffffffffffffffff169060200190929190505050610c8a565b6040518080602001828103825283818151815260200191508051906020019080838360005b838110156102ca5780820151818401526020810190506102af565b50505050905090810190601f1680156102f75780820380516001836020036101000a031916815260200191505b509250505060405180910390f35b34801561031157600080fd5b506103cb6004803603602081101561032857600080fd5b810190808035906020019064010000000081111561034557600080fd5b82018360208201111561035757600080fd5b8035906020019184600183028401116401000000008311171561037957600080fd5b91908080601f016020809104026020016040519081016040528093929190818152602001838380828437600081840152601f19601f820116905080830192505050505050509192919290505050610d6b565b604051808215151515815260200191505060405180910390f35b3480156103f157600080fd5b5061041e6004803603602081101561040857600080fd5b8101908080359060200190929190505050610f55565b60405180868152602001806020018581526020018473ffffffffffffffffffffffffffffffffffffffff1673ffffffffffffffffffffffffffffffffffffffff16815260200183151515158152602001828103825286818151815260200191508051906020019080838360005b838110156104a657808201518184015260208101905061048b565b50505050905090810190601f1680156104d35780820380516001836020036101000a031916815260200191505b50965050505050505060405180910390f35b3480156104f157600080fd5b506105ab6004803603602081101561050857600080fd5b810190808035906020019064010000000081111561052557600080fd5b82018360208201111561053757600080fd5b8035906020019184600183028401116401000000008311171561055957600080fd5b91908080601f016020809104026020016040519081016040528093929190818152602001838380828437600081840152601f19601f820116905080830192505050505050509192919290505050611050565b604051808215151515815260200191505060405180910390f35b60015481565b60008054600181600116156101000203166002900480601f0160208091040260200160405190810160405280929190818152602001828054600181600116156101000203166002900480156106615780601f1061063657610100808354040283529160200191610661565b820191906000526020600020905b81548152906001019060200180831161064457829003601f168201915b505050505081565b600082511161067757600080fd5b6000811161068457600080fd5b6001600081548092919060010191905055506040518060a0016040528060015481526020018381526020018281526020013373ffffffffffffffffffffffffffffffffffffffff1681526020016000151581525060026000600154815260200190815260200160002060008201518160000155602082015181600101908051906020019061071392919061123a565b506040820151816002015560608201518160030160006101000a81548173ffffffffffffffffffffffffffffffffffffffff021916908373ffffffffffffffffffffffffffffffffffffffff16021790555060808201518160030160146101000a81548160ff0219169083151502179055509050507fe49890a224a7e4d4956ed48dd500eb3f2a19a42f56e9564391556894d5757ae0600154838333600060405180868152602001806020018581526020018473ffffffffffffffffffffffffffffffffffffffff1673ffffffffffffffffffffffffffffffffffffffff16815260200183151515158152602001828103825286818151815260200191508051906020019080838360005b8381101561083957808201518184015260208101905061081e565b50505050905090810190601f1680156108665780820380516001836020036101000a031916815260200191505b50965050505050505060405180910390a15050565b6108836112ba565b600260008381526020019081526020016000206040518060a001604052908160008201548152602001600182018054600181600116156101000203166002900480601f0160208091040260200160405190810160405280929190818152602001828054600181600116156101000203166002900480156109445780601f1061091957610100808354040283529160200191610944565b820191906000526020600020905b81548152906001019060200180831161092757829003601f168201915b50505050508152602001600282015481526020016003820160009054906101000a900473ffffffffffffffffffffffffffffffffffffffff1673ffffffffffffffffffffffffffffffffffffffff1673ffffffffffffffffffffffffffffffffffffffff1681526020016003820160149054906101000a900460ff1615151515815250509050600081606001519050600082600001511180156109ed5750600154826000015111155b6109f657600080fd5b8160400151341015610a0757600080fd5b816080015115610a1657600080fd5b3373ffffffffffffffffffffffffffffffffffffffff168173ffffffffffffffffffffffffffffffffffffffff161415610a4f57600080fd5b33826060019073ffffffffffffffffffffffffffffffffffffffff16908173ffffffffffffffffffffffffffffffffffffffff168152505060018260800190151590811515815250508160026000858152602001908152602001600020600082015181600001556020820151816001019080519060200190610ad292919061123a565b506040820151816002015560608201518160030160006101000a81548173ffffffffffffffffffffffffffffffffffffffff021916908373ffffffffffffffffffffffffffffffffffffffff16021790555060808201518160030160146101000a81548160ff0219169083151502179055509050508073ffffffffffffffffffffffffffffffffffffffff166108fc349081150290604051600060405180830381858888f19350505050158015610b8d573d6000803e3d6000fd5b507f720a5ed36b7b629558a16efc201f25ca3dbcda79dcddfd1fa821787137b296eb6001548360200151846040015133600160405180868152602001806020018581526020018473ffffffffffffffffffffffffffffffffffffffff1673ffffffffffffffffffffffffffffffffffffffff16815260200183151515158152602001828103825286818151815260200191508051906020019080838360005b83811015610c47578082015181840152602081019050610c2c565b50505050905090810190601f168015610c745780820380516001836020036101000a031916815260200191505b50965050505050505060405180910390a1505050565b6060600560008373ffffffffffffffffffffffffffffffffffffffff1673ffffffffffffffffffffffffffffffffffffffff1681526020019081526020016000208054600181600116156101000203166002900480601f016020809104026020016040519081016040528092919081815260200182805460018160011615610100020316600290048015610d5f5780601f10610d3457610100808354040283529160200191610d5f565b820191906000526020600020905b815481529060010190602001808311610d4257829003601f168201915b50505050509050919050565b600060405160200180600001905060405160208183030381529060405280519060200120600560003373ffffffffffffffffffffffffffffffffffffffff1673ffffffffffffffffffffffffffffffffffffffff1681526020019081526020016000206040516020018082805460018160011615610100020316600290048015610e2c5780601f10610e0a576101008083540402835291820191610e2c565b820191906000526020600020905b815481529060010190602001808311610e18575b50509150506040516020818303038152906040528051906020012014610e5157600080fd5b610e59611301565b8281600001819052506040518060400160405280600681526020017f436c69656e740000000000000000000000000000000000000000000000000000815250600560003373ffffffffffffffffffffffffffffffffffffffff1673ffffffffffffffffffffffffffffffffffffffff1681526020019081526020016000209080519060200190610eea929190611314565b5080600460003373ffffffffffffffffffffffffffffffffffffffff1673ffffffffffffffffffffffffffffffffffffffff1681526020019081526020016000206000820151816000019080519060200190610f4792919061123a565b509050506001915050919050565b6002602052806000526040600020600091509050806000015490806001018054600181600116156101000203166002900480601f0160208091040260200160405190810160405280929190818152602001828054600181600116156101000203166002900480156110075780601f10610fdc57610100808354040283529160200191611007565b820191906000526020600020905b815481529060010190602001808311610fea57829003601f168201915b5050505050908060020154908060030160009054906101000a900473ffffffffffffffffffffffffffffffffffffffff16908060030160149054906101000a900460ff16905085565b600060405160200180600001905060405160208183030381529060405280519060200120600560003373ffffffffffffffffffffffffffffffffffffffff1673ffffffffffffffffffffffffffffffffffffffff16815260200190815260200160002060405160200180828054600181600116156101000203166002900480156111115780601f106110ef576101008083540402835291820191611111565b820191906000526020600020905b8154815290600101906020018083116110fd575b5050915050604051602081830303815290604052805190602001201461113657600080fd5b61113e611394565b8281600001819052506040518060400160405280601081526020017f536572766963655f70726f766964657200000000000000000000000000000000815250600560003373ffffffffffffffffffffffffffffffffffffffff1673ffffffffffffffffffffffffffffffffffffffff16815260200190815260200160002090805190602001906111cf929190611314565b5080600360003373ffffffffffffffffffffffffffffffffffffffff1673ffffffffffffffffffffffffffffffffffffffff168152602001908152602001600020600082015181600001908051906020019061122c92919061123a565b509050506001915050919050565b828054600181600116156101000203166002900490600052602060002090601f016020900481019282601f1061127b57805160ff19168380011785556112a9565b828001600101855582156112a9579182015b828111156112a857825182559160200191906001019061128d565b5b5090506112b691906113a7565b5090565b6040518060a00160405280600081526020016060815260200160008152602001600073ffffffffffffffffffffffffffffffffffffffff1681526020016000151581525090565b6040518060200160405280606081525090565b828054600181600116156101000203166002900490600052602060002090601f016020900481019282601f1061135557805160ff1916838001178555611383565b82800160010185558215611383579182015b82811115611382578251825591602001919060010190611367565b5b50905061139091906113a7565b5090565b6040518060200160405280606081525090565b6113c991905b808211156113c55760008160009055506001016113ad565b5090565b9056fea265627a7a723158204990bcd9029fd3028982cd38126cb490d177f3c09b70410091076fd4e3cee04964736f6c63430005100032",
  "source": "// SPDX-License-Identifier: MIT\r\npragma solidity >=0.5.16;\r\n\r\ncontract Mycontract {\r\n    string  public name;\r\n    uint public serviceCount = 0;\r\n    mapping (uint => Service) public services;\r\n\r\n    struct client {\r\n        string client_Hash;\r\n    }\r\n    struct serviceProvider {\r\n        string serviceP_Hash;\r\n    }\r\n\r\n    struct Service{\r\n        uint id;\r\n        string name;\r\n        uint price;\r\n        address payable owner;\r\n        bool purchased;\r\n    }\r\n\r\n\r\n    event ServiceCreate(\r\n        uint id,\r\n        string name,\r\n        uint price,\r\n        address payable owner,\r\n        bool purchased\r\n        );\r\n\r\n     event ServicePurchased(\r\n        uint id,\r\n        string name,\r\n        uint price,\r\n        address payable owner,\r\n        bool purchased\r\n        );\r\n\r\n    constructor() public{\r\n       name=\"KAJAL AWACHITE\";\r\n    }\r\n\r\n\r\n    function createService(string memory _name,uint _price)public{\r\n        \r\n\r\n        require (bytes(_name).length> 0);\r\n         require (_price> 0);\r\n\r\n        \r\n        serviceCount++;\r\n\r\n    \r\n        services[serviceCount] = Service(serviceCount,_name,_price,msg.sender,false);\r\n\r\n        emit ServiceCreate(serviceCount,_name,_price,msg.sender,false);\r\n    }\r\n\r\n\r\n\r\n    function purchaseService (uint _id) public  payable {\r\n        Service memory _service = services[_id];\r\n        address payable _sp=_service.owner;\r\n\r\n        require (_service.id> 0 && _service.id<=serviceCount);\r\n        \r\n        require (msg.value >=_service.price);\r\n        \r\n\r\n        require (!_service.purchased);\r\n\r\n\r\n        require (_sp != msg.sender);\r\n        \r\n\r\n\r\n        \r\n       _service.owner=msg.sender;\r\n       _service.purchased=true;\r\n       services[_id]=_service; \r\n       address(_sp).transfer(msg.value);\r\n        emit ServicePurchased(serviceCount,_service.name,_service.price,msg.sender,true);\r\n\r\n    }\r\n    \r\n\r\n    mapping(address => serviceProvider) SpStruct;\r\n    mapping(address => client) clientStruct;\r\n    mapping(address => string) userType;\r\n\r\n    function addClient(string memory _clientHash) public returns (bool) {\r\n        require(\r\n            keccak256(abi.encodePacked(userType[msg.sender])) ==\r\n                keccak256(abi.encodePacked(\"\"))\r\n        );\r\n        client memory c;\r\n        c.client_Hash = _clientHash;\r\n        userType[msg.sender] = \"Client\";\r\n        clientStruct[msg.sender] = c;\r\n        return true;\r\n    }\r\n\r\n    function addServiceP(string memory _servicePHash) public returns (bool) {\r\n        require(\r\n            keccak256(abi.encodePacked(userType[msg.sender])) ==\r\n                keccak256(abi.encodePacked(\"\"))\r\n        );\r\n        serviceProvider memory sp;\r\n        sp.serviceP_Hash = _servicePHash;\r\n        userType[msg.sender] = \"Service_provider\";\r\n        SpStruct[msg.sender] = sp;\r\n        return true;\r\n    }\r\n\r\n  \r\n\r\n   \r\n\r\n    function getUser(address _Uaddress) public view returns (string memory) {\r\n        return userType[_Uaddress];\r\n    }\r\n}\r\n",
  "sourcePath": "C:/Users/KAJAL/Desktop/Project_Blockchain/src/contracts/Mycontract.sol",
  "compiler": {
    "name": "solc",
    "version": "0.5.16+commit.9c3226ce.Emscripten.clang"
  },
  "schemaVersion": "3.4.1",
  "updatedAt": "2021-06-13T08:59:42.298Z",
  "networkType": "ethereum",
  "devdoc": {
    "methods": {}
  },
  "userdoc": {
    "methods": {}
  }
}